{
  "_format": "hh-sol-artifact-1",
  "contractName": "BasicDutchAuction",
  "sourceName": "contracts/BasicDutchAuction.sol",
  "abi": [
    {
      "inputs": [
        {
          "internalType": "uint256",
          "name": "_reservePrice",
          "type": "uint256"
        },
        {
          "internalType": "uint256",
          "name": "_numBlocksAuctionOpen",
          "type": "uint256"
        },
        {
          "internalType": "uint256",
          "name": "_offerPriceDecrement",
          "type": "uint256"
        }
      ],
      "stateMutability": "nonpayable",
      "type": "constructor"
    },
    {
      "anonymous": false,
      "inputs": [
        {
          "indexed": false,
          "internalType": "address",
          "name": "winner",
          "type": "address"
        },
        {
          "indexed": false,
          "internalType": "uint256",
          "name": "amount",
          "type": "uint256"
        }
      ],
      "name": "AuctionEnded",
      "type": "event"
    },
    {
      "inputs": [],
      "name": "auctionEnd",
      "outputs": [
        {
          "internalType": "bool",
          "name": "",
          "type": "bool"
        }
      ],
      "stateMutability": "view",
      "type": "function"
    },
    {
      "inputs": [],
      "name": "bid",
      "outputs": [],
      "stateMutability": "payable",
      "type": "function"
    },
    {
      "inputs": [],
      "name": "endAuction",
      "outputs": [],
      "stateMutability": "nonpayable",
      "type": "function"
    },
    {
      "inputs": [],
      "name": "getCurrentPrice",
      "outputs": [
        {
          "internalType": "uint256",
          "name": "",
          "type": "uint256"
        }
      ],
      "stateMutability": "view",
      "type": "function"
    },
    {
      "inputs": [],
      "name": "initialPrice",
      "outputs": [
        {
          "internalType": "uint256",
          "name": "",
          "type": "uint256"
        }
      ],
      "stateMutability": "view",
      "type": "function"
    },
    {
      "inputs": [],
      "name": "numBlocksAuctionOpen",
      "outputs": [
        {
          "internalType": "uint256",
          "name": "",
          "type": "uint256"
        }
      ],
      "stateMutability": "view",
      "type": "function"
    },
    {
      "inputs": [],
      "name": "offerPriceDecrement",
      "outputs": [
        {
          "internalType": "uint256",
          "name": "",
          "type": "uint256"
        }
      ],
      "stateMutability": "view",
      "type": "function"
    },
    {
      "inputs": [],
      "name": "owner",
      "outputs": [
        {
          "internalType": "address payable",
          "name": "",
          "type": "address"
        }
      ],
      "stateMutability": "view",
      "type": "function"
    },
    {
      "inputs": [],
      "name": "reservePrice",
      "outputs": [
        {
          "internalType": "uint256",
          "name": "",
          "type": "uint256"
        }
      ],
      "stateMutability": "view",
      "type": "function"
    },
    {
      "inputs": [],
      "name": "startingBlock",
      "outputs": [
        {
          "internalType": "uint256",
          "name": "",
          "type": "uint256"
        }
      ],
      "stateMutability": "view",
      "type": "function"
    },
    {
      "inputs": [],
      "name": "winningBid",
      "outputs": [
        {
          "internalType": "uint256",
          "name": "",
          "type": "uint256"
        }
      ],
      "stateMutability": "view",
      "type": "function"
    },
    {
      "inputs": [],
      "name": "winningBidder",
      "outputs": [
        {
          "internalType": "address payable",
          "name": "",
          "type": "address"
        }
      ],
      "stateMutability": "view",
      "type": "function"
    }
  ],
  "bytecode": "0x60806040523480156200001157600080fd5b50604051620018a1380380620018a18339818101604052810190620000379190620001d2565b6200005367551f4b2e514c1b8560c01b620001b860201b60201c565b6200006f67ceffa6d62dbd2a5b60c01b620001b860201b60201c565b336000806101000a81548173ffffffffffffffffffffffffffffffffffffffff021916908373ffffffffffffffffffffffffffffffffffffffff160217905550620000cb67a885ae625e823d2b60c01b620001b860201b60201c565b82600181905550620000ee67e461dab520293bb160c01b620001b860201b60201c565b81600281905550620001116728309d9cb0bb1aa160c01b620001b860201b60201c565b8060038190555062000134671d68b2309b41b0fd60c01b620001b860201b60201c565b808262000142919062000285565b836200014f919062000228565b6004819055506200017167f4076d57b3f9a98460c01b620001b860201b60201c565b4360088190555062000194677e583b63eca6913160c01b620001b860201b60201c565b6000600560006101000a81548160ff02191690831515021790555050505062000339565b50565b600081519050620001cc816200031f565b92915050565b600080600060608486031215620001e857600080fd5b6000620001f886828701620001bb565b93505060206200020b86828701620001bb565b92505060406200021e86828701620001bb565b9150509250925092565b60006200023582620002e6565b91506200024283620002e6565b9250827fffffffffffffffffffffffffffffffffffffffffffffffffffffffffffffffff038211156200027a5762000279620002f0565b5b828201905092915050565b60006200029282620002e6565b91506200029f83620002e6565b9250817fffffffffffffffffffffffffffffffffffffffffffffffffffffffffffffffff0483118215151615620002db57620002da620002f0565b5b828202905092915050565b6000819050919050565b7f4e487b7100000000000000000000000000000000000000000000000000000000600052601160045260246000fd5b6200032a81620002e6565b81146200033657600080fd5b50565b61155880620003496000396000f3fe6080604052600436106100a75760003560e01c80638da5cb5b116100645780638da5cb5b1461018d578063d3642a88146101b8578063d91c98d3146101e3578063db2e1eed1461020e578063eb91d37e14610239578063fe67a54b14610264576100a7565b80631998aeef146100ac5780631d0806ae146100b65780632a24f46c146100e15780633103ea621461010c5780638890ed09146101375780638cf8043814610162575b600080fd5b6100b461027b565b005b3480156100c257600080fd5b506100cb610aef565b6040516100d891906111e5565b60405180910390f35b3480156100ed57600080fd5b506100f6610af5565b60405161010391906110ca565b60405180910390f35b34801561011857600080fd5b50610121610b08565b60405161012e91906111e5565b60405180910390f35b34801561014357600080fd5b5061014c610b0e565b604051610159919061105d565b60405180910390f35b34801561016e57600080fd5b50610177610b34565b60405161018491906111e5565b60405180910390f35b34801561019957600080fd5b506101a2610b3a565b6040516101af919061105d565b60405180910390f35b3480156101c457600080fd5b506101cd610b5e565b6040516101da91906111e5565b60405180910390f35b3480156101ef57600080fd5b506101f8610b64565b60405161020591906111e5565b60405180910390f35b34801561021a57600080fd5b50610223610b6a565b60405161023091906111e5565b60405180910390f35b34801561024557600080fd5b5061024e610b70565b60405161025b91906111e5565b60405180910390f35b34801561027057600080fd5b50610279610c74565b005b61028f67d76e53f34537c0b360c01b610ef7565b6102a367c49059fbb240ba5b60c01b610ef7565b6102b7675b71c26adddb977560c01b610ef7565b6102cb677b873ab807c33fe160c01b610ef7565b6102df6786e49f6018d567f260c01b610ef7565b600560009054906101000a900460ff161561032f576040517f08c379a000000000000000000000000000000000000000000000000000000000815260040161032690611105565b60405180910390fd5b61034367f04b5bf3385b479960c01b610ef7565b61035767739e553ecfb16ee760c01b610ef7565b61036b677aa4e823fc1aebaa60c01b610ef7565b61037f67e36ee84499faa95860c01b610ef7565b61039367474578a460a1e17c60c01b610ef7565b6103a76746abb2e2e408765560c01b610ef7565b6103bb6738d431a990b2f96260c01b610ef7565b6103cf6769b3d8f6946b938260c01b610ef7565b6002546008546103df9190611211565b431115610421576040517f08c379a000000000000000000000000000000000000000000000000000000000815260040161041890611185565b60405180910390fd5b610435675f95cbdfd462602f60c01b610ef7565b61044967a3f6b0774f334dd260c01b610ef7565b61045d673e80b18843a211c460c01b610ef7565b6104716716c060022e7f151660c01b610ef7565b610485675bdadfc4dec165c860c01b610ef7565b61049967e43107523da707c860c01b610ef7565b6104ad67b06f520fd8d9bec760c01b610ef7565b60008054906101000a900473ffffffffffffffffffffffffffffffffffffffff1673ffffffffffffffffffffffffffffffffffffffff163373ffffffffffffffffffffffffffffffffffffffff16141561053c576040517f08c379a000000000000000000000000000000000000000000000000000000000815260040161053390611165565b60405180910390fd5b61055067541976d643c51e5860c01b610ef7565b6105646765983f7343577b5860c01b610ef7565b610578672e592184c67c2dbc60c01b610ef7565b6000610582610b70565b9050610598675788ba7217f5288a60c01b610ef7565b6105ac6795a9de5101b531e960c01b610ef7565b6105c067f677a528e708f7fc60c01b610ef7565b80341015610603576040517f08c379a00000000000000000000000000000000000000000000000000000000081526004016105fa906111c5565b60405180910390fd5b6106176782f247fcb484682860c01b610ef7565b61062b674400424dbe3ab08a60c01b610ef7565b61063f674f1e3354205e9bba60c01b610ef7565b61065266dc9b33c674d0ba60c01b610ef7565b600154811015610697576040517f08c379a000000000000000000000000000000000000000000000000000000000815260040161068e906111a5565b60405180910390fd5b6106ab674f7ad09c4751672260c01b610ef7565b6106bf67acef0e460148d53560c01b610ef7565b6106d367a0804331fc21e4c060c01b610ef7565b6106e767ec23b8475960116860c01b610ef7565b343373ffffffffffffffffffffffffffffffffffffffff16311015610741576040517f08c379a000000000000000000000000000000000000000000000000000000000815260040161073890611125565b60405180910390fd5b6107556751d6d655695f163460c01b610ef7565b61076967ad676d809ec8e4bc60c01b610ef7565b61077d67646a6a27f1ced92f60c01b610ef7565b8034111561081857610799671219f26067d967e760c01b610ef7565b6107ad67da93e25a61e43ac360c01b610ef7565b6107c167aacb601db0ddf8a860c01b610ef7565b3373ffffffffffffffffffffffffffffffffffffffff166108fc82346107e791906112c1565b9081150290604051600060405180830381858888f19350505050158015610812573d6000803e3d6000fd5b5061082d565b61082c679095382ddec4efc760c01b610ef7565b5b61084167b82cae3ccc81222460c01b610ef7565b61085567b9c1366c6badede060c01b610ef7565b610869671865e1ec3ec848b360c01b610ef7565b60008054906101000a900473ffffffffffffffffffffffffffffffffffffffff1673ffffffffffffffffffffffffffffffffffffffff16318160008054906101000a900473ffffffffffffffffffffffffffffffffffffffff1673ffffffffffffffffffffffffffffffffffffffff16316108e49190611211565b1015610925576040517f08c379a000000000000000000000000000000000000000000000000000000000815260040161091c90611145565b60405180910390fd5b610939673437f5944328fe0360c01b610ef7565b61094d671d9bbc115c9e75f360c01b610ef7565b610961676c82707cc982928660c01b610ef7565b60008054906101000a900473ffffffffffffffffffffffffffffffffffffffff1673ffffffffffffffffffffffffffffffffffffffff166108fc829081150290604051600060405180830381858888f193505050501580156109c7573d6000803e3d6000fd5b506109dc67c3be34f6671d6d8060c01b610ef7565b6001600560006101000a81548160ff021916908315150217905550610a0b679dd0accad97333c360c01b610ef7565b80600681905550610a2667d7a8a85e59a89d7560c01b610ef7565b33600760006101000a81548173ffffffffffffffffffffffffffffffffffffffff021916908373ffffffffffffffffffffffffffffffffffffffff160217905550610a7b67e0b1531806c5253b60c01b610ef7565b610a8f672561ed92c98c720860c01b610ef7565b7fdaec4582d5d9595688c8c98545fdd1c696d41c6aeaeb636737e84ed2f5c00eda600760009054906101000a900473ffffffffffffffffffffffffffffffffffffffff16600654604051610ae49291906110a1565b60405180910390a150565b60045481565b600560009054906101000a900460ff1681565b60025481565b600760009054906101000a900473ffffffffffffffffffffffffffffffffffffffff1681565b60065481565b60008054906101000a900473ffffffffffffffffffffffffffffffffffffffff1681565b60035481565b60085481565b60015481565b6000610b86670b1618db5876141460c01b610ef7565b610b9a6776a8fad110f632de60c01b610ef7565b610bae67b82938c4906f907760c01b610ef7565b600254600854610bbe9190611211565b431115610c0a57610bd96758dd9ad6750834aa60c01b610ef7565b610bed67c78f62727d646f3560c01b610ef7565b610c0167b653a4de0dc1fe7a60c01b610ef7565b60009050610c71565b610c1e6754cd52eecc9ba3a360c01b610ef7565b610c3267d1c1f217dda6603a60c01b610ef7565b610c4667a2b16aa73a810fb860c01b610ef7565b60035460085443610c5791906112c1565b610c619190611267565b600454610c6e91906112c1565b90505b90565b610c8867bf1aeb250905804f60c01b610ef7565b610c9c673b096e3b886ec65360c01b610ef7565b610cb0673fa5b8078ce41dcb60c01b610ef7565b610cc467be89b2c2ec12b9bc60c01b610ef7565b610cd86735726dacfef813cc60c01b610ef7565b60008054906101000a900473ffffffffffffffffffffffffffffffffffffffff1673ffffffffffffffffffffffffffffffffffffffff163373ffffffffffffffffffffffffffffffffffffffff1614610d66576040517f08c379a0000000000000000000000000000000000000000000000000000000008152600401610d5d906110e5565b60405180910390fd5b610d7a67057900e8d530705760c01b610ef7565b610d8e671fb643737a79307f60c01b610ef7565b610da2674b494f9f45e8d54960c01b610ef7565b610db667826f9fee93fc624f60c01b610ef7565b610dca6760e948d1d292e20760c01b610ef7565b6001600560006101000a81548160ff021916908315150217905550610df96721d4b65f67b509f560c01b610ef7565b6000600681905550610e15676450d334e3a6762560c01b610ef7565b6000600760006101000a81548173ffffffffffffffffffffffffffffffffffffffff021916908373ffffffffffffffffffffffffffffffffffffffff160217905550610e6b6740fd26833226a25760c01b610ef7565b6000600181905550610e8767f1ae2feb908ba20260c01b610ef7565b610e9b673915118336a36bfb60c01b610ef7565b7fdaec4582d5d9595688c8c98545fdd1c696d41c6aeaeb636737e84ed2f5c00eda60008054906101000a900473ffffffffffffffffffffffffffffffffffffffff166000604051610eed929190611078565b60405180910390a1565b50565b610f038161133d565b82525050565b610f12816112f5565b82525050565b610f2181611307565b82525050565b610f308161134f565b82525050565b6000610f43602283611200565b9150610f4e826113b4565b604082019050919050565b6000610f66601283611200565b9150610f7182611403565b602082019050919050565b6000610f89601c83611200565b9150610f948261142c565b602082019050919050565b6000610fac601a83611200565b9150610fb782611455565b602082019050919050565b6000610fcf601083611200565b9150610fda8261147e565b602082019050919050565b6000610ff2601383611200565b9150610ffd826114a7565b602082019050919050565b6000611015601e83611200565b9150611020826114d0565b602082019050919050565b6000611038601e83611200565b9150611043826114f9565b602082019050919050565b61105781611333565b82525050565b60006020820190506110726000830184610f09565b92915050565b600060408201905061108d6000830185610efa565b61109a6020830184610f27565b9392505050565b60006040820190506110b66000830185610efa565b6110c3602083018461104e565b9392505050565b60006020820190506110df6000830184610f18565b92915050565b600060208201905081810360008301526110fe81610f36565b9050919050565b6000602082019050818103600083015261111e81610f59565b9050919050565b6000602082019050818103600083015261113e81610f7c565b9050919050565b6000602082019050818103600083015261115e81610f9f565b9050919050565b6000602082019050818103600083015261117e81610fc2565b9050919050565b6000602082019050818103600083015261119e81610fe5565b9050919050565b600060208201905081810360008301526111be81611008565b9050919050565b600060208201905081810360008301526111de8161102b565b9050919050565b60006020820190506111fa600083018461104e565b92915050565b600082825260208201905092915050565b600061121c82611333565b915061122783611333565b9250827fffffffffffffffffffffffffffffffffffffffffffffffffffffffffffffffff0382111561125c5761125b611385565b5b828201905092915050565b600061127282611333565b915061127d83611333565b9250817fffffffffffffffffffffffffffffffffffffffffffffffffffffffffffffffff04831182151516156112b6576112b5611385565b5b828202905092915050565b60006112cc82611333565b91506112d783611333565b9250828210156112ea576112e9611385565b5b828203905092915050565b600061130082611313565b9050919050565b60008115159050919050565b600073ffffffffffffffffffffffffffffffffffffffff82169050919050565b6000819050919050565b600061134882611361565b9050919050565b600061135a82611333565b9050919050565b600061136c82611373565b9050919050565b600061137e82611313565b9050919050565b7f4e487b7100000000000000000000000000000000000000000000000000000000600052601160045260246000fd5b7f4f6e6c79206f776e65722063616e2063616c6c20746869732066756e6374696f60008201527f6e2e000000000000000000000000000000000000000000000000000000000000602082015250565b7f41756374696f6e2068617320656e6465642e0000000000000000000000000000600082015250565b7f496e73756666696369656e742062616c616e636520666f722062696400000000600082015250565b7f4f776e65722063616e6e6f7420726563656976652066756e6473000000000000600082015250565b7f4f776e65722063616e6e6f742062696400000000000000000000000000000000600082015250565b7f41756374696f6e206973206e6f74206f70656e00000000000000000000000000600082015250565b7f4269642069732062656c6f772074686520726573657276652070726963650000600082015250565b7f4269642069732062656c6f77207468652063757272656e74207072696365000060008201525056fea26469706673582212206949554bfd73ee6311b404a7f5dec825aa031d435a96e7890588b1c34eaee6b964736f6c63430008040033",
  "linkReferences": {},
  "deployedLinkReferences": {}
}